:100000000C9434000C9451000C9451000C94510049
:100010000C9451000C9451000C9451000C9451001C
:100020000C9451000C9451000C9451000C9451000C
:100030000C9451000C9453000C9451000C945100FA
:100040000C9451000C9451000C9451000C945100EC
:100050000C9451000C9451000C9451000C945100DC
:100060000C9451000C94510011241FBECFEFD8E026
:10007000DEBFCDBF11E0A0E0B1E0E4EAF1E002C0F4
:1000800005900D92A230B107D9F721E0A2E0B1E0CE
:1000900001C01D92A430B207E1F70E9498000C94B1
:1000A000D0000C9400001F920F920FB60F921124F3
:1000B0002F933F938F939F9380910301813081F51C
:1000C00025B13091020181E090E001C0880F3A959E
:1000D000EAF78095822385B9809102019091010110
:1000E000890F809302018530B1F49FEF9093010155
:1000F00095B121E030E001C0220F8A95EAF7892FFF
:10010000822B85B99F918F913F912F910F900FBEB8
:100110000F901F901895813059F780930101E8CF17
:100120001092020129982A982B982C982D98EACFA2
:10013000219A229A239A249A259A269A57985F9868
:10014000809181008B7F809381008091810083600A
:100150008093810080916F00816080936F0078941C
:1001600091E04F9B12C02091030181E0309100018A
:10017000313009F080E021110BC0882391F3909376
:1001800003012E9A10920001ECCF90930001E9CF69
:10019000213039F7882329F3109203012E98F2CFEA
:0401A000F894FFCF01
:0201A400010157
:00000001FF
