:100000000C945C000C9466000C9466000C946600E2
:100010000C9466000C9466000C9466000C946600C8
:100020000C9466000C9466000C9466000C946600B8
:100030000C9466000C9466000C9466000C946600A8
:100040000C9466000C9466000C9466000C94660098
:100050000C9466000C9466000C9466000C94660088
:100060000C9466000C946600000000002400270039
:100070002A0000000000250028002B0004040404CE
:100080000404040402020202020203030303030342
:10009000010204081020408001020408102001021F
:1000A00004081020000000080002010000030407FB
:1000B000000000000000000011241FBECFEFD8E0B8
:1000C000DEBFCDBF0E9408010C947D020C9400009D
:1000D0008330B1F060F08730E9F0883009F1843086
:1000E00021F5E0E8F0E080818F7D80830895813004
:1000F00069F0823021F484B58F7D84BD0895089520
:10010000E0E8F0E080818F778083089584B58F7771
:1001100084BD0895E0EBF0E080818F7780830895BF
:10012000E0EBF0E080818F7D808308951F93CF9373
:10013000DF93282F30E0F901EC55FF4F8491F9014E
:10014000E057FF4F1491F901E458FF4FC491CC23BD
:10015000A9F0D62F811116C0EC2FF0E0EE0FFF1F93
:10016000EE58FF4FA591B4918FB7F894D1110DC0FF
:100170009C91E12FE095E923EC938FBFDF91CF9124
:100180001F9108950E946800E7CFEC91E12BEC935A
:10019000F4CFCF93DF9390E0FC01E057FF4F249121
:1001A00084589F4FFC018491882319F190E0880FB7
:1001B000991FFC01E859FF4FA591B491FC01EE583D
:1001C000FF4FC591D491662349F06230A9F08FB7F3
:1001D000F894EC91E22BEC938FBF0BC09FB7F8948F
:1001E0008C91E22FE0958E238C938881E823E8831D
:1001F0009FBFDF91CF9108959FB7F8943C91822FD4
:10020000809583238C93E881E22BE8839FBFF1CF15
:1002100061E08DE00E94C90061E088E00E94C900B1
:1002200061E08DE00E9496002FEF8DEE92E021506C
:1002300080409040E1F700C0000060E08DE00E9447
:1002400096002FEF8DEE92E0215080409040E1F734
:1002500000C0000061E08DE00E9496002FEF89EC65
:1002600098E0215080409040E1F700C0000060E03D
:100270008DE00E9496002FEF8DEE92E0215080409D
:100280009040E1F700C0000061E08DE00E94960020
:100290002FEF89EC98E0215080409040E1F700C0BA
:1002A000000060E08DE00E9496002FEF8DEE92E05E
:1002B000215080409040E1F700C0000061E08DE0F7
:1002C0000E9496002FEF8DEE92E0215080409040EA
:1002D000E1F700C0000060E08DE00E9496002FEF83
:1002E00089EC98E0215080409040E1F700C0000088
:1002F00061E08DE00E9496002FEF8DEE92E021509C
:1003000080409040E1F700C0000060E08DE00E9476
:1003100096002FEF8DEE92E0215080409040E1F763
:1003200000C0000061E08DE00E9496002FEF89EC94
:1003300098E0215080409040E1F700C0000060E06C
:100340008DE00E9496002FEF89EC98E021508040CC
:100350009040E1F700C0000061E08DE00E9496004F
:100360002FEF8DEE92E0215080409040E1F700C0E9
:10037000000060E08DE00E9496002FEF8DEE92E08D
:10038000215080409040E1F700C0000061E08DE026
:100390000E9496002FEF89EC98E021508040904019
:1003A000E1F700C0000060E08DE00E9496002FEFB2
:1003B0008DEE92E0215080409040E1F700C00000B7
:1003C00061E08DE00E9496002FEF8DEE92E02150CB
:1003D00080409040E1F700C0000060E08DE00E94A6
:1003E00096002FEF89EC98E0215080409040E1F793
:1003F00000C0000061E08DE00E9496002FEF8DEEBE
:1004000092E0215080409040E1F700C0000060E0A1
:100410008DE00E9496002FEF8DEE92E021508040FB
:100420009040E1F700C0000061E08DE00E9496007E
:100430002FEF8DEE92E0215080409040E1F700C018
:10044000000060E08DE00E9496002FEF89EC98E0BC
:10045000215080409040E1F700C0000061E08DE055
:100460000E9496002FEF8DEE92E021508040904048
:10047000E1F700C0000060E08DE00E9496002FEFE1
:100480008DEE92E0215080409040E1F700C00000E6
:1004900061E08DE00E9496002FEF8DEE92E02150FA
:1004A00080409040E1F700C0000060E08DE00E94D5
:1004B00096002FEF8DEE92E0215080409040E1F7C2
:1004C00000C0000061E08DE00E9496002FEF8DEEED
:1004D00092E0215080409040E1F700C0000060E0D1
:1004E0008DE00E9496002FEF81E894E1215080403A
:0E04F0009040E1F700C0000093CEF894FFCFDB
:00000001FF
