:100000000C9434000C943E000C943E000C943E0082
:100010000C943E000C943E000C943E000C943E0068
:100020000C943E000C943E000C943E000C943E0058
:100030000C943E000C943E000C943E000C943E0048
:100040000C943E000C943E000C943E000C943E0038
:100050000C943E000C943E000C943E000C943E0028
:100060000C943E000C943E0011241FBECFEFD8E04C
:10007000DEBFCDBF0E9440000C94BE000C94000077
:10008000219A229A239A249A259A269A57985F9A17
:1000900091E080E031E04F996DC0282F232729237C
:1000A00009F45CC02E9A90E0299A2FEF44E38CE08B
:1000B000215040408040E1F700C0000029982A9A72
:1000C0002FEF44E38CE0215040408040E1F700C036
:1000D00000002A982B9A2FEF44E38CE021504040F7
:1000E0008040E1F700C000002B982C9A2FEF44E3EA
:1000F0008CE0215040408040E1F700C000002C9887
:100100002D9A2FEF44E38CE0215040408040E1F7EE
:1001100000C000002D982C9A2FEF44E38CE0215072
:1001200040408040E1F700C000002C982B9A2FEF50
:1001300044E38CE0215040408040E1F700C00000E3
:100140002B982A9A2FEF44E38CE0215040408040C6
:10015000E1F700C000002A9881E09DCF282F2923D5
:1001600051F02E9890E029982A982B982C982D9849
:1001700080E091CF91E08130B1F796CFF894FFCF36
:00000001FF
